{
  "contractName": "Crowdsale",
  "abi": [
    {
      "inputs": [
        {
          "internalType": "address payable",
          "name": "wallet",
          "type": "address"
        }
      ],
      "stateMutability": "nonpayable",
      "type": "constructor"
    },
    {
      "anonymous": false,
      "inputs": [
        {
          "indexed": false,
          "internalType": "address",
          "name": "vendeur",
          "type": "address"
        },
        {
          "indexed": false,
          "internalType": "address",
          "name": "acheteur",
          "type": "address"
        },
        {
          "indexed": false,
          "internalType": "uint256",
          "name": "montant",
          "type": "uint256"
        }
      ],
      "name": "Vendu",
      "type": "event"
    },
    {
      "inputs": [],
      "name": "getAdmin",
      "outputs": [
        {
          "internalType": "address payable",
          "name": "",
          "type": "address"
        }
      ],
      "stateMutability": "view",
      "type": "function"
    },
    {
      "inputs": [],
      "name": "getWallet",
      "outputs": [
        {
          "internalType": "address payable",
          "name": "",
          "type": "address"
        }
      ],
      "stateMutability": "view",
      "type": "function"
    },
    {
      "inputs": [],
      "name": "getToken",
      "outputs": [
        {
          "internalType": "contract RoseToken",
          "name": "",
          "type": "address"
        }
      ],
      "stateMutability": "view",
      "type": "function"
    },
    {
      "inputs": [],
      "name": "getSoldToken",
      "outputs": [
        {
          "internalType": "uint256",
          "name": "",
          "type": "uint256"
        }
      ],
      "stateMutability": "view",
      "type": "function"
    },
    {
      "inputs": [
        {
          "internalType": "uint256",
          "name": "montant",
          "type": "uint256"
        }
      ],
      "name": "venteToken",
      "outputs": [],
      "stateMutability": "payable",
      "type": "function"
    }
  ],
  "bytecode": "0x608060405234801561001057600080fd5b50604051611cd1380380611cd18339818101604052602081101561003357600080fd5b8101908080519060200190929190505050336000806101000a81548173ffffffffffffffffffffffffffffffffffffffff021916908373ffffffffffffffffffffffffffffffffffffffff16021790555080600160006101000a81548173ffffffffffffffffffffffffffffffffffffffff021916908373ffffffffffffffffffffffffffffffffffffffff1602179055506040516100d190610134565b604051809103906000f0801580156100ed573d6000803e3d6000fd5b50600260006101000a81548173ffffffffffffffffffffffffffffffffffffffff021916908373ffffffffffffffffffffffffffffffffffffffff16021790555050610141565b6114bd8061081483390190565b6106c4806101506000396000f3fe60806040526004361061004a5760003560e01c8063132996041461004f57806321df0da7146100a65780636e9960c3146100fd578063f30a4a7014610154578063f8a781a71461017f575b600080fd5b34801561005b57600080fd5b506100646101ad565b604051808273ffffffffffffffffffffffffffffffffffffffff1673ffffffffffffffffffffffffffffffffffffffff16815260200191505060405180910390f35b3480156100b257600080fd5b506100bb6101d7565b604051808273ffffffffffffffffffffffffffffffffffffffff1673ffffffffffffffffffffffffffffffffffffffff16815260200191505060405180910390f35b34801561010957600080fd5b50610112610201565b604051808273ffffffffffffffffffffffffffffffffffffffff1673ffffffffffffffffffffffffffffffffffffffff16815260200191505060405180910390f35b34801561016057600080fd5b5061016961022a565b6040518082815260200191505060405180910390f35b6101ab6004803603602081101561019557600080fd5b8101908080359060200190929190505050610234565b005b6000600160009054906101000a900473ffffffffffffffffffffffffffffffffffffffff16905090565b6000600260009054906101000a900473ffffffffffffffffffffffffffffffffffffffff16905090565b60008060009054906101000a900473ffffffffffffffffffffffffffffffffffffffff16905090565b6000600354905090565b600073ffffffffffffffffffffffffffffffffffffffff163373ffffffffffffffffffffffffffffffffffffffff1614156102ba576040517f08c379a000000000000000000000000000000000000000000000000000000000815260040180806020018281038252602181526020018061066e6021913960400191505060405180910390fd5b60008111610313576040517f08c379a000000000000000000000000000000000000000000000000000000000815260040180806020018281038252602a815260200180610644602a913960400191505060405180910390fd5b600160009054906101000a900473ffffffffffffffffffffffffffffffffffffffff1673ffffffffffffffffffffffffffffffffffffffff166108fc349081150290604051600060405180830381858888f1935050505015801561037b573d6000803e3d6000fd5b50610391346003546105bb90919063ffffffff16565b600381905550600260009054906101000a900473ffffffffffffffffffffffffffffffffffffffff1673ffffffffffffffffffffffffffffffffffffffff166328e69b1633346040518363ffffffff1660e01b8152600401808373ffffffffffffffffffffffffffffffffffffffff1673ffffffffffffffffffffffffffffffffffffffff16815260200182815260200192505050600060405180830381600087803b15801561044057600080fd5b505af1158015610454573d6000803e3d6000fd5b505050507f546b6c9d2dbc26f01f0754df386d24433328199369b87c517171f9bf2cbf8f9c303383604051808473ffffffffffffffffffffffffffffffffffffffff1673ffffffffffffffffffffffffffffffffffffffff1681526020018373ffffffffffffffffffffffffffffffffffffffff1673ffffffffffffffffffffffffffffffffffffffff168152602001828152602001935050505060405180910390a17f546b6c9d2dbc26f01f0754df386d24433328199369b87c517171f9bf2cbf8f9c33600160009054906101000a900473ffffffffffffffffffffffffffffffffffffffff1683604051808473ffffffffffffffffffffffffffffffffffffffff1673ffffffffffffffffffffffffffffffffffffffff1681526020018373ffffffffffffffffffffffffffffffffffffffff1673ffffffffffffffffffffffffffffffffffffffff168152602001828152602001935050505060405180910390a150565b600080828401905083811015610639576040517f08c379a000000000000000000000000000000000000000000000000000000000815260040180806020018281038252601b8152602001807f536166654d6174683a206164646974696f6e206f766572666c6f77000000000081525060200191505060405180910390fd5b809150509291505056fe566f7573206e6520706f7576657a207061732061636865746572203020746f6b656e2c2062616e616e65566f7573206176657a20756e2070726f626cc3a86d65206427616472657373652ea264697066735822122098b788f4ae90d5a53612f09925c38c89175f9b22d15b987d97e5bb1a7af630b464736f6c6343000600003360806040526040518060400160405280600981526020017f526f7365546f6b656e000000000000000000000000000000000000000000000081525060009080519060200190620000519291906200010f565b506040518060400160405280600381526020017f524f5a0000000000000000000000000000000000000000000000000000000000815250600190805190602001906200009f9291906200010f565b5060126002556b204fce5e3e25026110000000600355348015620000c257600080fd5b50600354600460003373ffffffffffffffffffffffffffffffffffffffff1673ffffffffffffffffffffffffffffffffffffffff16815260200190815260200160002081905550620001be565b828054600181600116156101000203166002900490600052602060002090601f016020900481019282601f106200015257805160ff191683800117855562000183565b8280016001018555821562000183579182015b828111156200018257825182559160200191906001019062000165565b5b50905062000192919062000196565b5090565b620001bb91905b80821115620001b75760008160009055506001016200019d565b5090565b90565b6112ef80620001ce6000396000f3fe608060405234801561001057600080fd5b506004361061009e5760003560e01c8063313ce56711610066578063313ce5671461015b57806370a082311461017957806395d89b41146101a9578063a9059cbb146101c7578063dd62ed3e146101f75761009e565b806306fdde03146100a3578063095ea7b3146100c157806318160ddd146100f157806323b872dd1461010f57806328e69b161461013f575b600080fd5b6100ab610227565b6040516100b8919061108b565b60405180910390f35b6100db60048036036100d69190810190610dcc565b6102c5565b6040516100e89190611070565b60405180910390f35b6100f9610496565b604051610106919061116f565b60405180910390f35b61012960048036036101249190810190610d7d565b6104a0565b6040516101369190611070565b60405180910390f35b61015960048036036101549190810190610dcc565b61085e565b005b6101636108a6565b604051610170919061116f565b60405180910390f35b610193600480360361018e9190810190610d18565b6108ac565b6040516101a0919061116f565b60405180910390f35b6101b16108f5565b6040516101be919061108b565b60405180910390f35b6101e160048036036101dc9190810190610dcc565b610993565b6040516101ee9190611070565b60405180910390f35b610211600480360361020c9190810190610d41565b610bb7565b60405161021e919061116f565b60405180910390f35b60008054600181600116156101000203166002900480601f0160208091040260200160405190810160405280929190818152602001828054600181600116156101000203166002900480156102bd5780601f10610292576101008083540402835291602001916102bd565b820191906000526020600020905b8154815290600101906020018083116102a057829003601f168201915b505050505081565b60008073ffffffffffffffffffffffffffffffffffffffff163373ffffffffffffffffffffffffffffffffffffffff161415610336576040517f08c379a000000000000000000000000000000000000000000000000000000000815260040161032d9061114f565b60405180910390fd5b600073ffffffffffffffffffffffffffffffffffffffff168373ffffffffffffffffffffffffffffffffffffffff1614156103a6576040517f08c379a000000000000000000000000000000000000000000000000000000000815260040161039d906110ef565b60405180910390fd5b81600560003373ffffffffffffffffffffffffffffffffffffffff1673ffffffffffffffffffffffffffffffffffffffff16815260200190815260200160002060008573ffffffffffffffffffffffffffffffffffffffff1673ffffffffffffffffffffffffffffffffffffffff168152602001908152602001600020819055508273ffffffffffffffffffffffffffffffffffffffff163373ffffffffffffffffffffffffffffffffffffffff167f8c5be1e5ebec7d5bd14f71427d1e84f3dd0314c0f7b2291e5b200ac8c7c3b92584604051610484919061116f565b60405180910390a36001905092915050565b6000600354905090565b60008073ffffffffffffffffffffffffffffffffffffffff168473ffffffffffffffffffffffffffffffffffffffff161415610511576040517f08c379a00000000000000000000000000000000000000000000000000000000081526004016105089061112f565b60405180910390fd5b600073ffffffffffffffffffffffffffffffffffffffff168373ffffffffffffffffffffffffffffffffffffffff161415610581576040517f08c379a0000000000000000000000000000000000000000000000000000000008152600401610578906110cf565b60405180910390fd5b61062a8260405180606001604052806028815260200161129260289139600560008873ffffffffffffffffffffffffffffffffffffffff1673ffffffffffffffffffffffffffffffffffffffff16815260200190815260200160002060003373ffffffffffffffffffffffffffffffffffffffff1673ffffffffffffffffffffffffffffffffffffffff16815260200190815260200160002054610c3e9092919063ffffffff16565b600560008673ffffffffffffffffffffffffffffffffffffffff1673ffffffffffffffffffffffffffffffffffffffff16815260200190815260200160002060003373ffffffffffffffffffffffffffffffffffffffff1673ffffffffffffffffffffffffffffffffffffffff168152602001908152602001600020819055506107168260405180606001604052806026815260200161126c60269139600460008873ffffffffffffffffffffffffffffffffffffffff1673ffffffffffffffffffffffffffffffffffffffff16815260200190815260200160002054610c3e9092919063ffffffff16565b600460008673ffffffffffffffffffffffffffffffffffffffff1673ffffffffffffffffffffffffffffffffffffffff168152602001908152602001600020819055506107ab82600460008673ffffffffffffffffffffffffffffffffffffffff1673ffffffffffffffffffffffffffffffffffffffff16815260200190815260200160002054610c9990919063ffffffff16565b600460008573ffffffffffffffffffffffffffffffffffffffff1673ffffffffffffffffffffffffffffffffffffffff168152602001908152602001600020819055508273ffffffffffffffffffffffffffffffffffffffff168473ffffffffffffffffffffffffffffffffffffffff167fddf252ad1be2c89b69c2b068fc378daa952ba7f163c4a11628f55a4df523b3ef8460405161084b919061116f565b60405180910390a3600190509392505050565b80600460008473ffffffffffffffffffffffffffffffffffffffff1673ffffffffffffffffffffffffffffffffffffffff168152602001908152602001600020819055505050565b60025481565b6000600460008373ffffffffffffffffffffffffffffffffffffffff1673ffffffffffffffffffffffffffffffffffffffff168152602001908152602001600020549050919050565b60018054600181600116156101000203166002900480601f01602080910402602001604051908101604052809291908181526020018280546001816001161561010002031660029004801561098b5780601f106109605761010080835404028352916020019161098b565b820191906000526020600020905b81548152906001019060200180831161096e57829003601f168201915b505050505081565b60008073ffffffffffffffffffffffffffffffffffffffff168373ffffffffffffffffffffffffffffffffffffffff161415610a04576040517f08c379a00000000000000000000000000000000000000000000000000000000081526004016109fb906110cf565b60405180910390fd5b610a708260405180606001604052806026815260200161126c60269139600460003373ffffffffffffffffffffffffffffffffffffffff1673ffffffffffffffffffffffffffffffffffffffff16815260200190815260200160002054610c3e9092919063ffffffff16565b600460003373ffffffffffffffffffffffffffffffffffffffff1673ffffffffffffffffffffffffffffffffffffffff16815260200190815260200160002081905550610b0582600460008673ffffffffffffffffffffffffffffffffffffffff1673ffffffffffffffffffffffffffffffffffffffff16815260200190815260200160002054610c9990919063ffffffff16565b600460008573ffffffffffffffffffffffffffffffffffffffff1673ffffffffffffffffffffffffffffffffffffffff168152602001908152602001600020819055508273ffffffffffffffffffffffffffffffffffffffff163373ffffffffffffffffffffffffffffffffffffffff167fddf252ad1be2c89b69c2b068fc378daa952ba7f163c4a11628f55a4df523b3ef84604051610ba5919061116f565b60405180910390a36001905092915050565b6000600560008473ffffffffffffffffffffffffffffffffffffffff1673ffffffffffffffffffffffffffffffffffffffff16815260200190815260200160002060008373ffffffffffffffffffffffffffffffffffffffff1673ffffffffffffffffffffffffffffffffffffffff16815260200190815260200160002054905092915050565b6000838311158290610c86576040517f08c379a0000000000000000000000000000000000000000000000000000000008152600401610c7d91906110ad565b60405180910390fd5b5060008385039050809150509392505050565b600080828401905083811015610ce4576040517f08c379a0000000000000000000000000000000000000000000000000000000008152600401610cdb9061110f565b60405180910390fd5b8091505092915050565b600081359050610cfd8161123d565b92915050565b600081359050610d1281611254565b92915050565b600060208284031215610d2a57600080fd5b6000610d3884828501610cee565b91505092915050565b60008060408385031215610d5457600080fd5b6000610d6285828601610cee565b9250506020610d7385828601610cee565b9150509250929050565b600080600060608486031215610d9257600080fd5b6000610da086828701610cee565b9350506020610db186828701610cee565b9250506040610dc286828701610d03565b9150509250925092565b60008060408385031215610ddf57600080fd5b6000610ded85828601610cee565b9250506020610dfe85828601610d03565b9150509250929050565b610e11816111c3565b82525050565b6000610e2282611195565b610e2c81856111a0565b9350610e3c8185602086016111f9565b610e458161122c565b840191505092915050565b6000610e5b8261118a565b610e6581856111a0565b9350610e758185602086016111f9565b610e7e8161122c565b840191505092915050565b6000610e966023836111a0565b91507f45524332303a207472616e7366657220746f20746865207a65726f206164647260008301527f65737300000000000000000000000000000000000000000000000000000000006020830152604082019050919050565b6000610efc6022836111a0565b91507f45524332303a20617070726f766520746f20746865207a65726f20616464726560008301527f73730000000000000000000000000000000000000000000000000000000000006020830152604082019050919050565b6000610f62601b836111a0565b91507f536166654d6174683a206164646974696f6e206f766572666c6f7700000000006000830152602082019050919050565b6000610fa26025836111a0565b91507f45524332303a207472616e736665722066726f6d20746865207a65726f20616460008301527f64726573730000000000000000000000000000000000000000000000000000006020830152604082019050919050565b60006110086024836111a0565b91507f45524332303a20617070726f76652066726f6d20746865207a65726f2061646460008301527f72657373000000000000000000000000000000000000000000000000000000006020830152604082019050919050565b61106a816111ef565b82525050565b60006020820190506110856000830184610e08565b92915050565b600060208201905081810360008301526110a58184610e50565b905092915050565b600060208201905081810360008301526110c78184610e17565b905092915050565b600060208201905081810360008301526110e881610e89565b9050919050565b6000602082019050818103600083015261110881610eef565b9050919050565b6000602082019050818103600083015261112881610f55565b9050919050565b6000602082019050818103600083015261114881610f95565b9050919050565b6000602082019050818103600083015261116881610ffb565b9050919050565b60006020820190506111846000830184611061565b92915050565b600081519050919050565b600081519050919050565b600082825260208201905092915050565b60006111bc826111cf565b9050919050565b60008115159050919050565b600073ffffffffffffffffffffffffffffffffffffffff82169050919050565b6000819050919050565b60005b838110156112175780820151818401526020810190506111fc565b83811115611226576000848401525b50505050565b6000601f19601f8301169050919050565b611246816111b1565b811461125157600080fd5b50565b61125d816111ef565b811461126857600080fd5b5056fe45524332303a207472616e7366657220616d6f756e7420657863656564732062616c616e636545524332303a207472616e7366657220616d6f756e74206578636565647320616c6c6f77616e6365a2646970667358221220472138ca7b774f863a3e7edd5c2f9243641f4c679c2fcb3c2c6d11b06a55701064736f6c63430006000033",
  "source": "pragma solidity >=0.5.0 <= 0.6.0;\n\nimport \"./SafeMath.sol\";\nimport \"./RoseToken.sol\";\n\ncontract Crowdsale {\n    using SafeMath for uint256;\n\n    address payable private _admin;\n    address payable private _wallet;\n    RoseToken private _token;\n    uint256 private _tokenSold;\n\n    event Vendu(address vendeur, address acheteur, uint256 montant);\n\n    constructor(address payable wallet) public {\n        _admin = msg.sender;\n        _wallet = wallet;\n        _token = new RoseToken();\n    }\n\n    modifier estAdmin {\n        require(msg.sender == _admin,\n        \"Vous n'êtes pas admin.\");_;\n    }\n\n    modifier nestPasAdresse0 {\n        require(msg.sender != address(0),\n        \"Vous avez un problème d'adresse.\");_;\n    }\n\n    function getAdmin() public view returns (address payable) {\n        return _admin;\n    } //ici on utilise un getter pour récup _admin qui a été set en private\n\n    function getWallet() public view returns (address payable) {\n        return _wallet;\n    }\n\n    function getToken() public view returns (RoseToken) {\n        return _token;\n    }\n\n    function getSoldToken() public view returns (uint256) {\n        return _tokenSold;\n    }\n\n    function venteToken(uint256 montant) public payable nestPasAdresse0 {\n        require(montant > 0,\n        \"Vous ne pouvez pas acheter 0 token, banane\");\n        // _controleVente(msg.value);\n        _wallet.transfer(msg.value);\n        _tokenSold = _tokenSold.add(msg.value);\n        _token.setBalances(msg.sender, msg.value);\n        emit Vendu(address(this), msg.sender, montant);\n        emit Vendu(msg.sender, _wallet, montant);\n    }\n\n    function _controleVente(uint256 montant) private view {\n        require(montant > _token.totalSupply(),\n        \"Mauvais montant.\");\n        require(_token.totalSupply() - _tokenSold > montant,\n        \"Mauvais montant.\");\n    }\n\n    // function() external payable {}\n\n}",
  "sourcePath": "/home/aoranosh/Bureau/Alyra/RoseIco/contracts/Crowdsale.sol",
  "compiler": {
    "name": "solc",
    "version": "0.6.0+commit.26b70077.Emscripten.clang"
  },
  "schemaVersion": "3.0.23",
  "updatedAt": "2020-02-18T20:52:14.706Z",
  "devdoc": {
    "methods": {}
  },
  "userdoc": {
    "methods": {}
  }
}